:020000021000EC
:10C000000040002041C601007DC601007FC601003E
:10C010000000000000000000000000000000000020
:10C0200000000000000000000000000081C60100C8
:10C03000000000000000000083C6010085C601006A
:10C0400087C6010087C6010049CE010087C60100EE
:10C0500087C601000000000087C6010087C60100F6
:10C0600087C6010087C6010087C6010087C6010098
:10C0700087C6010087C6010087C6010087C6010088
:10C0800087C6010035CF010087C6010087C60100C1
:10C0900087C6010087C6010087C6010087C6010068
:10C0A00087C6010087C601000000000000000000F4
:10C0B0000000000000000000000000000000000080
:10C0C00010B5064C2378002B07D1054B002B02D06E
:10C0D000044800E000BF0123237010BD7428002035
:10C0E00000000000F8E2010008B5084B002B03D067
:10C0F0000748084900E000BF07480368002B03D049
:10C10000064B002B00D0984708BDC0460000000039
:10C11000F8E20100782800207428002000000000C8
:10C12000164B002B00D1144B9D46402292029A1AC6
:10C13000924600218B460F461348144A121A01F00A
:10C14000F1F80F4B002B00D098470E4B002B00D07E
:10C1500098470020002104000D000D48002802D05F
:10C160000C4800E000BF01F0B7F82000290000F003
:10C170005BFD01F09BF8C046000008000040002075
:10C180000000000000000000742800207C2900202E
:10C19000000000000000000010B50420012100F0A4
:10C1A000F9FC0520012100F0F5FC0121062000F03A
:10C1B000F1FC174800F0C0F8164C201C00F0B2F952
:10C1C000201C00F08DF904210A1C201C00F03CF911
:10C1D000201C114900F026FA201C0422052100F041
:10C1E00033F9201C0D4900F01DFA201C0422062101
:10C1F00000F02AF9201C0A4900F014FA201C04223D
:10C20000072100F021F9201C064900F00BFA10BDAF
:10C2100090280020FC28002054DC01005ADC01009A
:10C2200063DC010067DC010010B509240021042053
:10C2300000F0D8FCC82000F0A6FC0420012100F08A
:10C24000D1FC013CC82000F09EFC002CEED110BDBA
:10C25000031C3133303002781B780020934200D821
:10C26000D01A7047021C011C313230311378097822
:10C27000994204D9591C1170C318187C01E001209F
:10C2800040427047031C021C313330321B78127855
:10C290009A4202D9C018007C01E001204042704758
:10C2A000704710B5021C68321278031C0120022A64
:10C2B0000AD11C1C523422781F2A05D89B1810184A
:10C2C000303320709970002010BD70B5031C6833A6
:10C2D0001C780023022C0ED193420CD0051C523541
:10C2E0002C781F2C07D8661C2E70CD5C04193034B6
:10C2F000A5700133F0E7181C70BD000038B5FA23B3
:10C300009B0083600B4B002508330360031C303314
:10C3100045601D705D702233041C1D705D709D7042
:10C32000291C1022583000F0FDFF231C68331D70BB
:10C33000201C38BD70DC010038B5041C032000F05F
:10C340000DFC051C022000F009FC011C201C2A1C0D
:10C35000583000F085FA68340023237038BD031C80
:10C3600049005433021C1970533200231370013AF0
:10C37000137068300223037070470000F7B5031C88
:10C38000051C071C0E1C5433021C52375835041C64
:10C39000197832323B78281C009600F0F1FA231C01
:10C3A00000206833012238701A70A36D041C191C18
:10C3B000FC318A6A012A0DD10A481F58BF0703D5EC
:10C3C0008C625A61FF2405E01858470702D58C6239
:10C3D0005A61FE24002E02D0281C00F0A5FA60B29B
:10C3E000FEBDC046C404000008B50121FFF7C6FF2A
:10C3F00008BD000008B50248FFF780FF08BDC04631
:10C400009028002008B50368C9B21B68984708BD8A
:10C41000014B02221A727047FC28002038B5094CE3
:10C420000D1C201C3C21FFF79AFF201C8021FFF7E8
:10C43000E9FF291C201CFFF734FF201CFFF7D4FF65
:10C4400038BDC04690280020503970B5C9B2041CD0
:10C45000161CFFF7E3FF617A0F257143201C29406A
:10C46000FFF7DCFF617A201C714309110D40291C84
:10C470001031FFF7D3FF70BD38B5094C0D1C201CDF
:10C480003C21FFF76CFF201C4021FFF7BBFF291C5C
:10C49000201CFFF706FF201CFFF7A6FF38BDC04693
:10C4A0009028002070B5041C40680E1C002816D08F
:10C4B0000B1C203B5F2B00D920260025637A9D4270
:10C4C0000DD2321C203A53436068227A4119CB18AE
:10C4D000995C201C0135FFF7CFFFEDB2EEE770BD90
:10C4E00070B5AE21051CFFF799FF0026281C311CF2
:10C4F0000022FFF7A9FF1024013C281C2021E4B2F0
:10C50000FFF7D0FF002CF7D10136F6B2082EEDD19F
:10C51000281CAF21FFF782FF281C211C221CFFF7DB
:10C5200093FF70BD10B5AE21041CFFF777FF201CF0
:10C53000A621FFF773FF201CAE21FFF76FFF201C21
:10C54000D521FFF76BFF201C8021FFF767FF201C20
:10C55000A821FFF763FF201C3F21FFF75FFF201C8E
:10C56000D321FFF75BFF201C0021FFF757FF201CA2
:10C570004021FFF753FF201C8D21FFF74FFF201CA8
:10C580001421FFF74BFF201C2021FFF747FF201C41
:10C590000021FFF743FF201CA121FFF73FFF201CD4
:10C5A000C821FFF73BFF201CDA21FFF737FF201CD3
:10C5B0001221FFF733FF201C8121FFF72FFF201CE2
:10C5C000CF21FFF72BFF201CD921FFF727FF201CCD
:10C5D000F121FFF723FF201CDB21FFF71FFF201CA9
:10C5E0004021FFF71BFF201CA421FFF717FF201C91
:10C5F000A621FFF713FF201CFFF772FF201C2E213E
:10C60000FFF70CFF201C2021FFF708FF201C002152
:10C61000FFF704FF024B63600823637210BDC0463E
:10C6200090DC010070B5061C0D1C0024295D00295A
:10C6300005D0301C0134FFF735FFE4B2F6E770BDDA
:10C640000848026803210A4302600749074A084B69
:10C650009B1A03DD043BC858D050FBDC05488047DB
:10C66000054800472405004004E30100002800209D
:10C670007428002089C6010021C10100FEE7FEE701
:10C68000FEE7FEE7FEE7FEE7334B10B51A78181C0D
:10C69000012A12D1314B1B6819070ED1304BF02201
:10C6A0001B68E024191C1140234204D12D4B1B6848
:10C6B000134202D140E03029F8D00378012B0DD18C
:10C6C000264A1268110709D1254A1168F022114043
:10C6D000402903D123490968114235D08023A32181
:10C6E000DB050122C9005A501F49002088609A606A
:10C6F0001E4B8A68002A2DD1C822C046C046C046BB
:10C70000C046C046C046C046C046C046C046C046F9
:10C71000C046C046C046013A002AEED1013B002B7C
:10C72000E7D18022A320D205C000135001239360DB
:10C730008B68002BFCD00DE00D490E4A1160802162
:10C740000D4A09021160B8E7C1228021D200C90553
:10C750008B50C3E710BDC046E00F00F0E40F00F0BF
:10C76000E80F00F0EC0F00F0FC0000408813000020
:10C77000DFFF07C004050040186C0040036800217B
:10C780001A1CFC32916001215961064B9168002905
:10C7900004D1013B002BF9D1012002E000230373F7
:10C7A000181C7047A1860100084B0068C150084B57
:10C7B000021CFC32116A002904D1013B002BF7D185
:10C7C000012001E0002010627047C0461C050000F7
:10C7D000A186010010B50B4C02680B4BA14204DC92
:10C7E0000A498160CC2149040AE0094CA14203DCDA
:10C7F00008498160802102E007498160CD21C90498
:10C80000D15010BD8FD0030024050000A086010088
:10C810007F1A060090D00300801A0600F8B5E025C4
:10C820006D00041C5619A020C025E027C005ED00AE
:10C830007F00B6003550CE19B60035502068A125CE
:10C84000ED004251054A8150191C201CFFF7C2FF20
:10C850002268A0230521DB00D150F8BD0C050000A3
:10C86000F8B52A4B0F1C1978161CC9B2051C1A1CE6
:10C87000012909D15C78F8B2844205D19878F3B2E5
:10C88000984201D1697316E0214908780B1C0128F0
:10C8900007D14C78F8B2844203D18878F1B288424B
:10C8A00014D01178002908D10123F9B21370517006
:10C8B000F1B291706B73174C10E01A78002A09D10D
:10C8C00001221A70FAB25A70F2B29A7002236B7394
:10C8D000114C03E0114800F014FA0024201C00F071
:10C8E000F1F8221C0023FC326E712F712C609362D0
:10C8F000A022D200A3500A4A281CA3500123A3500F
:10C90000391C321C074BFFF789FFF8BD08290020AE
:10C910000C29002000300040004000408ADF010068
:10C92000FC0F0000A086010008B503680022191C56
:10C93000FC318A62A021C9005A5006495A5001228E
:10C940005A5004210522415682568368FFF766FF3C
:10C9500008BDC046FC0F0000036830B5191CFC314F
:10C960008A6A0020012A08D1044C1C5988625A6145
:10C970000220A50700D40120404230BDC4040000BD
:10C98000F8B5171C1E1CB1220368D200491099503B
:10C990008022920000259D500122041C9A60B5421D
:10C9A00011DA795D201CFFF7FFFE002809D0201C5A
:10C9B000FFF7BAFF201CFFF7CFFF00280EDA051C97
:10C9C0000CE00135EBE7069B351C002B06D0201C44
:10C9D000FFF7D4FE002801D001256D42281CF8BDC8
:10C9E00082B00190C046C046C046C046C046C04660
:10C9F000C046C046C046C046C046C046C046C04607
:10CA0000019B013B0193002BECD102B07047000069
:10CA1000F0B5A023DB000022C158A024C250EE22B2
:10CA2000E405D200A35885B00293234B234E019115
:10CA3000A350A15980220391A351A123DB009205A9
:10CA4000E25080225205E250051C0420FFF7C8FF87
:10CA5000A223DB00E258910004D5E2580123120F13
:10CA60001A4217D11324013C002C15D0144BA026D8
:10CA70008027F6057F05F7500420FFF7B1FFA123BB
:10CA8000DB00F7500420FFF7ABFFA223DB00F358D5
:10CA90009A00E8D5012000E0201C0299A023EE2294
:10CAA000DB05D20099500399044A9950019AA023BA
:10CAB000DB00EA5005B0F0BD0D0600007407000071
:10CAC0000C050000164AA023EE21DB05C90010B5B5
:10CAD0005A5014495A50031CFC330022DA601A627F
:10CAE000A122D2001C2383500F4B1D21C1500F4B9C
:10CAF000CC214904C1509C235B00C418A2210C4BDB
:10CB0000C9005C500B491D3CFF3C5C500121995011
:10CB1000A0230522DB00C250FFF77AFF10BDC046FC
:10CB20000C060000740700000C050000240500003E
:10CB300000F0014014050000F8B5061C0C1C8F180D
:10CB40000025BC4207D0336821781B68301C984709
:10CB500001342D18F5E7281CF8BD0000FF230E282E
:10CB600001D8024B1B5C58B27047C0469BDF0100E6
:10CB700038B5041C00F048FA051C00F045FA401BCB
:10CB8000A042FAD338BD08B5FA239B005843FFF7FB
:10CB9000EFFF08BD30B587B00C1CFFF7DFFF051CA9
:10CBA000431C04D10D480E490F2200F04DF86B468E
:10CBB0001D70012C06D0002C04D0022C0BD10021BA
:10CBC000032501E0211C0025684600F001F96846B4
:10CBD000291C00F0F7F807B030BDC046AADF0100FD
:10CBE000C1DF010038B50D1CFFF7B8FF041C431C62
:10CBF00004D109480949232200F026F80122A02384
:10CC0000A240DB05141C002D02D0A121C90000E0C8
:10CC100003495C5038BDC046AADF0100C1DF0100F6
:10CC20000C0500007047704708B5FFF7FCFFFFF7E1
:10CC3000F9FF00F089FA08BD08B5002800D1FEE729
:10CC400000F026F8FBE7000038B5051C0C1C131C8F
:10CC5000291C0248221C00F054F838BD32E00100C3
:10CC600038B50023C356041C0D1C013304D10648FB
:10CC700006492422FFF7E8FF6368002D01D0E2682F
:10CC800000E02269136038BD63E001007BE0010031
:10CC900000B599B068460F2100F065F806A80F218D
:10CCA00000F061F80CA80F2100F05DF812A80F2128
:10CCB00000F059F868460121FFF7D2FF06A80021CD
:10CCC000FFF7CEFF0CA80021FFF7CAFF12A8012131
:10CCD000FFF7C6FF962000F056F868460021FFF7E0
:10CCE000BFFF06A80121FFF7BBFF0CA80121FFF73A
:10CCF000B7FF12A80021FFF7B3FF962000F043F81A
:10CD0000D8E70FB4012008B500F0D0FA38B50023F9
:10CD1000C356041C0D1C013304D1064806492422C5
:10CD2000FFF792FF6368002D01D0E26800E02269FE
:10CD3000136038BD63E001007BE0010070B50D1C9D
:10CD4000041C161C00F026F801350BD0201C311CE9
:10CD5000FFF7DCFF201C012100F03AF8201C002125
:10CD600000F030F870BD08B50022FFF7E7FF08BDFE
:10CD700038B5041C00F048F9051C00F045F9401BCB
:10CD8000A042FAD338BD08B5FA239B005843FFF7F9
:10CD9000EFFF08BD01704B1C0AD001238B4043609C
:10CDA000044BC360044B0361044B4361044B836039
:10CDB0007047C046080500500C0500501005005093
:10CDC0001405005008B5007840B200F01FF808BD07
:10CDD00038B50023C356051C0C1C013304D1094887
:10CDE00009492A22FFF730FF002C01D0012C07D17E
:10CDF0000022AA56A023C132FF329200DB05D45094
:10CE000038BDC04663E001001AE1010038B5041CDA
:10CE10000D1C431C04D10A480A491A22FFF714FFCB
:10CE2000A023A000DB05C018E023DB00C2580C21C2
:10CE30008A43C250C258AD001543C55038BDC046E4
:10CE400068E00100B6E10100124AC1239B00D158FD
:10CE500010B5080603D51049096A002911D1D35825
:10CE60005A0716D50C4BDA68002A12D00024DC6071
:10CE7000084AA323DB00D058C0B200F0B5F9211C4A
:10CE800000E00121054B1868002802D0044B1B6804
:10CE9000984710BD00200040FC20004014290020CD
:10CEA0001029002003681A1CFC32106A0128FAD1EC
:10CEB00000201062014AC9B2995070471C05000059
:10CEC0000368FC33186A0138434258417047000038
:10CED0000A490B4A88680B4B002808D018680130B3
:10CEE0001860002088600220D221814050500649FD
:10CEF0001B6852581806190A10437047FC1001406D
:10CF0000001001401C290020040500002F23C0460A
:10CF1000C046C046C046C046C046C046C046C046E1
:10CF2000C046C046C046C046C046013B002BEED1BD
:10CF300070470000F8B5184B9A68002A0AD0174AC3
:10CF4000022011680131116000229A601449D22236
:10CF5000824088505B6C124C002B1CD00E4B8025FD
:10CF6000D222920000266D025E64A5500D4A13780D
:10CF7000B34210D00C4B1F68FFF7AAFF3F1AB7420D
:10CF800009DC084BD2221E70C2239B009200E550A0
:10CF9000A55000F053F9F8BDFC1001401C290020F9
:10CFA00000100140212900201829002038B5124C1A
:10CFB0002278002A1FD1114BA121C9005A50022208
:10CFC000D22191405A50C12191405A500C4AC4215B
:10CFD000890055580B482840C0252D022843505041
:10CFE0008021C020890240000125115011601D6080
:10CFF000FFF78CFF257038BD20290020001001406C
:10D0000000E100E0FF00FFFF08B50B4B1B78002B91
:10D0100001D1FFF7CBFFFFF75BFF064B044A00F09F
:10D02000F9F94904C00B084308BDC046C046C046D4
:10D0300040420F000000000020290020C046C046EA
:10D040002F4B70B51B78061C002B01D1FFF7AEFFEC
:10D05000FFF73EFF254B244A00F0DCF94B04C00BE0
:10D06000002400251843CD0B0023321CA4185D4179
:10D0700080231B06984205D9002E03DB1C4A1D4B5A
:10D08000A4185D41610CEB030B43E2031A481B49F2
:10D0900080185941154B144A00F09CF9194D041C95
:10D0A0002B78194E002B02D0336898421BD0FFF723
:10D0B0000FFF201A022802DCFFF70AFF841C21025E
:10D0C000124BA822D200090A99502A783460002A0B
:10D0D00009D101222A70D2218022520289005A509D
:10D0E000C12189005A5070BD40420F00000000006D
:10D0F00000000000010000003F420F00000000009F
:10D10000202900202129002018290020001001409A
:10D11000074B1A78002A0AD0064A8021C220490209
:10D1200080001150D2208000115000221A707047E8
:10D130002129002000100140024B00229A605A640D
:10D140007047C046FC10014008B5FFF725F8FFF70F
:10D150006BF8FCE701207047054B1A1C4032107831
:10D1600041331B784030C01A3F2318407047C046F7
:10D1700022290020084A111C101C413140300B7834
:10D180000078984205D0D05C01333F2213400B70E9
:10D1900001E001204042704722290020064B1A1C62
:10D1A000191C4132403112780978914201D0985CC3
:10D1B00001E00120404270472229002007B5034BBF
:10D1C00068460093FFF76EFE0EBDC046002000408B
:10D1D00007B5044B00936846FFF772FE0028FAD0AB
:10D1E00007BDC0460020004030B5074B3F211A1C48
:10D1F00040321478651C29401D1C41352D788D4224
:10D2000001D01855117030BD222900200023436041
:10D21000FA239B008360024B083303607047C046CB
:10D2200050E2010008B5034800F010F80248FFF78B
:10D23000EDFF08BD222900206429002008B502481E
:10D2400000F011F808BDC0468CE2010010B50021C5
:10D25000041C402200F066F8221C40320023201CEF
:10D260001370537010BD38B50368041CDB68984711
:10D2700063685A682368002A02D19B68984714E0C3
:10D280005B681568984763682D1A002D08DC5A689A
:10D29000916859601B68002BEAD050689847E7E70F
:10D2A0005B68226818681369984738BD084B10B549
:10D2B000041C002B02D0002100E000BF054B1868C1
:10D2C000836A002B00D09847201CFFF7B5FCC046AE
:10D2D00000000000F4E2010070B50E4B0E4D00247A
:10D2E000ED1AAD101E1CAC4204D0A300F3589847B1
:10D2F0000134F8E700F0A2FC084B094D0024ED1AB8
:10D30000AD101E1CAC4204D0A300F3589847013462
:10D31000F8E770BD60280020602800206028002009
:10D3200070280020031C8218934202D01970013328
:10D33000FAE77047002934D00123002210B4884254
:10D340002CD301242407A14204D2814202D2090134
:10D350001B01F8E7E400A14204D2814202D2490055
:10D360005B00F8E7884201D3401A1A434C08A042F8
:10D3700002D3001B5C0822438C08A04202D3001B8E
:10D380009C082243CC08A04202D3001BDC082243A5
:10D39000002803D01B0901D00909E3E7101C10BCC9
:10D3A0007047002801D00020C04307B4024802A102
:10D3B0004018029003BDC046190000000029F0D0BB
:10D3C00003B5FFF7B9FF0EBC4243891A1847C046A0
:10D3D0007047C046002B11D1002A0FD1002900D17F
:10D3E000002802D00021C943081C07B4024802A14A
:10D3F0004018029003BDC046D9FFFFFF03B4684642
:10D4000001B5029800F044F8019B9E4602B00CBCA6
:10D410007047C0469C460304F0B51B0C17043F0C34
:10D42000150C1E1C041C000C7E436B4347434543F4
:10D43000FB18300C1818874202D980235B02ED18C4
:10D44000030CED1863465C434A433604360CA118BE
:10D45000000480194919F0BDF0B583B0161C1F1CDB
:10D460000090019100F04CF8041C0D1C221C2B1C98
:10D47000301C391CFFF7CEFF009A019B121A8B411A
:10D480000899201C0A604B60291C03B0F0BDC046FF
:10D49000F0B583B0141C1D1C0090019100F00CFA33
:10D4A000221C2B1C061C0F1CFFF7B4FF009A019BCB
:10D4B000121A8B410899301C0A604B60391C03B06A
:10D4C000F0BDC0461C2101231B04984201D3000C6F
:10D4D00010391B0A984201D3000A08391B099842E7
:10D4E00001D30009043902A2105C40187047C046FD
:10D4F000040302020101010100000000000000001D
:10D50000F0B544465F4656464D46F0B41C1C85B007
:10D51000002900DADBE00F1C0021061C8A46101CE3
:10D52000191C002C00DAC9E001960090894680465B
:10D53000002951D1B84200D871E0FFF7C3FF00289D
:10D5400009D020234546311C1B1A85408740D9400D
:10D55000A8460F4386404246150C13041B0C291C99
:10D56000381C9B46FFF7E6FE5B464343041C291C20
:10D57000381C9946FFF722FF330C080418438145F5
:10D5800009D94044631E804500D978E1814500D81F
:10D5900075E1023C40444946411A8946081C291C51
:10D5A000FFF7C8FE5A464243071C291C48469346CB
:10D5B000FFF704FF36040904360C0E43B34507D9C0
:10D5C00046447B1EB04502D8023FB34500D81F1C1D
:10D5D00024042743002403E0B94211D90024002782
:10D5E0005246381C211C002A03D03B1C0021584203
:10D5F000A14105B03CBC90469946A246AB46F0BD61
:10D60000081CFFF75FFF041E00D0BFE0B94500D241
:10D6100042E1019D0099071C8D424741E0E7002847
:10D6200004D101200021FFF785FE80464046FFF728
:10D6300049FF002852D1414644460B043C1B1B0CB9
:10D64000A3460D0C00930124291C5846FFF772FED7
:10D65000009F81464743291C5846FFF7AFFE330C15
:10D66000090419438F4208D94B464144013B884580
:10D6700002D88F4200D91AE19946C91B8B46081C73
:10D68000291CFFF757FE009B291C4343071C5846E3
:10D690000093FFF793FE3604009D0904360C0E43F9
:10D6A000B54207D946447B1EB04502D8023FB54279
:10D6B00000D81F1C49460E04374391E75246D24317
:10D6C000031C0C1C924600215842A1412CE7002764
:10D6D00046428F41012149428A4620E720231B1AF6
:10D6E0004246351C82403C1CDD40DC4087402B1C00
:10D6F000150C3B43291C8640201C009317049046C0
:10D70000FFF718FE3F0C011C794381468B46201C15
:10D71000291CFFF753FE009C0904230C19438B4579
:10D720000CD94B464144013B884500D9BDE08B45AF
:10D7300000D8BAE002225242914441445C460C1B9C
:10D74000201C291C0194FFF7F5FD391C4143041CE2
:10D750008B460198291CFFF731FE009A0904130437
:10D760001B0C19438B4509D94144631E884500D9D8
:10D7700097E08B4500D894E0023C41445B46CB1ACD
:10D7800049469B460B041C4300975DE7009D202300
:10D790001B1A4A468240DD401543391C009AD94085
:10D7A00082408846311C0092D9403A1C82400B1CB2
:10D7B000134301932F0C2B041B0C391C404602937E
:10D7C000FFF7B8FD029A81464243391C4046934612
:10D7D000FFF7F4FD019A0904130C19438B450AD98C
:10D7E0004B464919013B8D425DD88B455BD90223DD
:10D7F0005B42994449195A468A1A101C391C0392F3
:10D80000FFF798FD029B80464343391C03989B46D3
:10D81000FFF7D4FD019A090413041B0C19438B452F
:10D820000AD943464919013B8D4238D88B4536D930
:10D8300002235B42984449195D464D1BAB4649465D
:10D84000009D0F04424617432A04120C3B042D0C82
:10D850001B0C380C111C594342436B436843D318CB
:10D860000D0C5B198C469A4202D980225202801814
:10D870001D0C401983450CD303D00024B0E61C1CBA
:10D8800089E665462A041B04120C9B18A6409E429A
:10D89000F3D2013F0024A3E600240127A0E6984626
:10D8A000CAE71C1C6AE79946A5E7994646E70222A3
:10D8B000524291444144E0E6F0B55F4656464D463B
:10D8C0004446F0B40D1C85B0061C92469846029062
:10D8D000019103921F1C141C8346A946002B59D1A9
:10D8E000AA4269D9101CFFF7EDFD00280AD02023B9
:10D8F0001B1A311CD94085400B1C2B4386408440A9
:10D900009946B346250C23041B0C291C484698460F
:10D91000FFF710FD4646071C4643291C4846FFF703
:10D920004DFD5A460904130C19438E4209D90919B1
:10D930007B1E8C4200D957E18E4200D854E1023F51
:10D940000919891B8946081C291CFFF7F3FC43466B
:10D950004343061C291C48469846FFF72FFD5A46AC
:10D96000130409041B0C1943884508D90919731EAF
:10D970008C4200D936E1023E884500D832E13804B5
:10D9800030430027391C05B03CBC90469946A2465E
:10D99000AB46F0BD019A934262D8181CFFF792FD86
:10D9A000041E60D1019B9F4200D22CE1029F03998B
:10D9B0008F4260410027E5E7002A04D101200021C1
:10D9C000FFF7B8FC041C201CFFF77CFD002800D0EA
:10D9D000B9E023042D1B1B0CA946260C98460127F1
:10D9E000311C4846FFF7A6FC41464143051C8A46C8
:10D9F0004846311CFFF7E2FC5A460804130C184352
:10DA0000824507D900196B1E844202D8824500D98D
:10DA100010E11D1C5346C31A181C311C9A46FFF70F
:10DA200089FC41464143814688465046311CFFF7F8
:10DA3000C5FC5A46130409041B0C194388450BD92D
:10DA40004B460919013B8C4200D9CFE0884500D8EC
:10DA5000CCE002235B42994428044946084391E7FD
:10DA6000002700208EE720231B1A4246574682409B
:10DA7000DF401743524682400192321CDA40291C93
:10DA8000D9408540131C2B4302933D0C3B041B0CD7
:10DA90008846081C291C9A46FFF74CFC5346434312
:10DAA0008146291C40469B46FFF788FC029A0904E0
:10DAB000130C19438B4506D94B46C919013B8F42BC
:10DAC00000D8ABE099465A468A1A101C291C934686
:10DAD000FFF730FC53464343291C804658469A467C
:10DAE000FFF76CFC029A090415042D0C29438A45A2
:10DAF00006D94346C919013B8F4200D886E09846B3
:10DB00005746CF1BBA464946019F08044246104378
:10DB10003D042D0C03043F0C1B0C020C291C594323
:10DB200055437B437A43EB180F0CDB198C469D421F
:10DB300002D980277F02D2191D0C521992455FD35A
:10DB400056D000271EE720231B1A311C2F1CD9405A
:10DB5000DF4085400B1C84402B4386400193B34635
:10DB60002304260C1B0C381C311C9846FFF7E2FBE3
:10DB700042464243051C311C381C9146FFF71EFCEF
:10DB8000019F09043B0C1943894507D909196B1EEC
:10DB90008C424DD889454BD9023D09194A468A1A0B
:10DBA000101C311C9246FFF7C5FB43464343071C3C
:10DBB000311C50469946FFF701FC019A09041304F1
:10DBC0001B0C1943894507D909197B1E8C422DD896
:10DBD00089452BD9023F09194B46CB1A2D0499468A
:10DBE0002F43FDE61E1CCAE61F1CAAE6994633E732
:10DBF00061460A041B04120C9B18A6409E42A0D248
:10DC000001380027BEE600270120BBE68A4500D880
:10DC100075E702235B429844C91971E78B4500D828
:10DC200050E702235B429944C9194CE71F1CD3E714
:10DC30001D1CB3E7023D0019ECE6C046F8B5C0462E
:10DC4000F8BC08BC9E467047F8B5C046F8BC08BC96
:10DC50009E46704748454C4C4F006E524635313811
:10DC6000323200424C4500776F726C642100000034
:10DC70000000000000000000A3C20100CBC20100B0
:10DC800051C2010065C2010085C20100A1C20100AC
:10DC900008080000000000000000000000005F0015
:10DCA0000000000000030003000000247E24247E06
:10DCB0002400002E2A7F2A3A00000046261008641D
:10DCC00062000020544A542050000000000402006A
:10DCD00000000000003C42000000000000423C0048
:10DCE000000000105438541000000010107C101078
:10DCF00000000000008060000000001010101010F4
:10DD000000000000006060000000004020100804D7
:10DD100000003C62524A463C000044427E404000C3
:10DD2000000064525252524C00002442424A4A348B
:10DD300000003028247E202000002E4A4A4A4A3221
:10DD400000003C4A4A4A4A300000020262120A06B7
:10DD50000000344A4A4A4A3400000C525252523CA3
:10DD60000000000000480000000000008064000087
:10DD7000000000001028440000000028282828285F
:10DD80000000000044281000000000040202520AB3
:10DD90000400003C425A565A1C007C121212127C9B
:10DDA00000007E4A4A4A4A3400003C424242422431
:10DDB00000007E424242241800007E4A4A4A4A42FB
:10DDC00000007E0A0A0A0A0200003C424252523413
:10DDD00000007E080808087E00000042427E4242A1
:10DDE000000030404040403E00007E0808142240C1
:10DDF00000007E404040404000007E040808047E51
:10DE000000007E040810207E00003C424242423C5A
:10DE100000007E121212120C00003C425262423C80
:10DE200000007E121212324C0000244A4A4A4A3044
:10DE300000000202027E020202003E404040403EDC
:10DE400000001E204040201E00003E402020403E9A
:10DE5000000042241818244200000204087008043C
:10DE600002004262524A4642000000007E424200E6
:10DE700000000004081020400000000042427E0024
:10DE800000000008047E04080000808080808080FC
:10DE900080003C4299A5A581423C0020545454780E
:10DEA0000000007E484848300000000038444444E8
:10DEB000000000304848487E000000385454544860
:10DEC00000000000007C0A0200000018A4A4A4A422
:10DED0007C00007E080808700000000000487A40BE
:10DEE000000000004080807A0000007E182440007E
:10DEF00000000000003E40400000007C04780478F0
:10DF00000000007C040404780000003844444438D5
:10DF1000000000FC2424241800000018242424FC01
:10DF20008000000078040404000000485454542089
:10DF300000000000043E44400000003C4040403CE3
:10DF40000000000C3040300C0000003C4038403CE9
:10DF500000000044281028440000001CA0A0A07C61
:10DF60000000004464544C4400000008087642421B
:10DF700000000000007E0000000000424276080819
:10DF8000000000000402040200004E6F2061766170
:10DF9000696C61626C6520493243000B090A081CF8
:10DFA0001D0F07010203040513066E72665F706998
:10DFB0006E20213D202850696E4E616D65294E43CB
:10DFC000002F55736572732F6B6F646572613274C5
:10DFD0002F4C6962726172792F41726475696E6F3C
:10DFE00031352F7061636B616765732F52656442D1
:10DFF0006561722F68617264776172652F6E524637
:10E0000035313832322F312E302E382F636F726512
:10E01000732F52424C5F6E524635313832322F7771
:10E020006972696E675F6469676974616C2E637099
:10E0300070006D62656420617373657274617469E8
:10E040006F6E206661696C65643A2025732C2066CA
:10E05000696C653A2025732C206C696E65202564F7
:10E06000200A006F626A2D3E70696E20213D2028D3
:10E0700050696E4E616D65294E43002F5573657270
:10E08000732F6B6F6465726132742F4C69627261B9
:10E0900072792F41726475696E6F31352F706163CB
:10E0A0006B616765732F526564426561722F6861A9
:10E0B0007264776172652F6E524635313832322F75
:10E0C000312E302E382F636F7265732F52424C5FA2
:10E0D0006E524635313832322F6D6265642F74616D
:10E0E00072676574732F68616C2F544152474554B1
:10E0F0005F4E4F524449432F5441524745545F4D60
:10E1000043555F4E524635313832322F6770696F52
:10E110005F6F626A6563742E68002F557365727352
:10E120002F6B6F6465726132742F4C696272617219
:10E13000792F41726475696E6F31352F7061636B31
:10E14000616765732F526564426561722F68617201
:10E1500064776172652F6E524635313832322F3115
:10E160002E302E382F636F7265732F52424C5F6EC4
:10E17000524635313832322F6D6265642F746172C8
:10E18000676574732F68616C2F5441524745545F23
:10E190004E4F524449432F5441524745545F4D43DB
:10E1A000555F4E524635313832322F6770696F5F96
:10E1B0006170692E63002F55736572732F6B6F64E6
:10E1C00065726132742F4C6962726172792F41728B
:10E1D0006475696E6F31352F7061636B616765734C
:10E1E0002F526564426561722F6861726477617253
:10E1F000652F6E524635313832322F312E302E385F
:10E200002F636F7265732F52424C5F6E52463531E9
:10E210003832322F6D6265642F7461726765747372
:10E220002F68616C2F5441524745545F4E4F524402
:10E2300049432F5441524745545F4D43555F4E5219
:10E240004635313832322F70696E6D61702E630041
:10E250000000000000000000BDD1010039CB01002A
:10E2600059D1010075D101009DD10100D1D101002A
:10E2700055D1010000000000ADCF010009D0010020
:10E2800011D1010039D1010041D0010078E2010033
:10E2900074290020000000000000000000000000C1
:10E2A000000000000000000000000000000000006E
:10E2B000000000000000000000000000000000005E
:10E2C000000000000000000000000000000000004E
:10E2D000000000000000000000000000000000003E
:10E2E000000000000000000000000000000000002E
:0CE2F000000000000028002000000000DA
:08E2FC0024DEFF7F0100000099
:10E304000000000094E20100B4E20100D4E2010044
:10E3140000000000000000000000000000000000F9
:10E3240099DF010000000000000000000000000070
:10E3340000000000000000000000000000000000D9
:10E3440000000000000000000000000000000000C9
:10E3540000000000000000000000000000000000B9
:10E36400E9C00100F5C3010011C4010025D2010078
:04E37400C1C0010023
:040000031000C641E2
:00000001FF
